:020000040800F2
:100000000002002001010008AB020008F101000815
:10001000A902000841010008CD020008000000000C
:10002000000000000000000000000000C9020008FD
:100030004301000800000000AD020008CB020008E8
:100040001701000817010008170100081701000830
:100050001701000817010008170100081701000820
:100060001701000817010008170100081701000810
:100070001701000817010008170100081701000800
:1000800017010008170100081701000817010008F0
:1000900017010008170100081701000817010008E0
:1000A00017010008170100081701000817010008D0
:1000B00017010008170100081701000817010008C0
:1000C00017010008170100081701000817010008B0
:1000D00017010008170100081701000817010008A0
:1000E000170100081701000817010008DFF80CD0FD
:1000F00000F014F800480047ED020008000200205C
:1001000005480047FEE7FEE7FEE7FEE7FEE7FEE7FD
:10011000FEE7FEE7FEE7FEE7ED000008064C074DB0
:1001200006E0E06840F0010394E8070098471034C7
:10013000AC42F6D3FFF7DEFF2803000838030008BF
:10014000FEE770472DE9F041CB78002503F00F0260
:10015000DB0601D58B781A430B884FF00F0813F09C
:10016000FF0F4FF0010C1CD0D0F800400E880CFAA5
:1001700005F31E409E4210D1AF0008FA07F624EAAC
:10018000060602FA07F43443CE78282E02D0482E11
:1001900002D002E0436100E003616D1C082DE5D34D
:1001A00004600B88FF2B1DD94468002505F1080663
:1001B0000CFA06F30E881E409E420FD1AF0008FADB
:1001C00007F624EA060602FA07F43443CE78282E0E
:1001D00000D14361CE78482E00D103616D1C082DFB
:1001E000E4D34460BDE8F08141617047016170472C
:1001F000FEE7000008B50121212000F059F89C20FD
:10020000ADF8000003208DF8020010208DF80300E7
:1002100069460248FFF796FF08BD00000014014040
:100220009C210148FFF7E2BF0014014010B50446CD
:10023000FFF7F6FF4CB1012C0BD0022C0DD0032C94
:100240000FD0BDE8104000F029B8BDE8104000F024
:100250000DB8BDE8104000F00FB8BDE8104000F048
:1002600011B8BDE8104000F013B8000004210148A7
:10027000FFF7BABF0014014008210148FFF7B4BFDF
:100280000014014010210148FFF7AEBF00140140E7
:1002900080210148FFF7A8BF001401409C210148BC
:1002A000FFF7A2BF00140140FEE77047704700004F
:1002B000044A0029916901D0014300E08143916122
:1002C000704700000010024070477047FEE702E0F0
:1002D00008C8121F08C1002AFAD1704770470020D1
:1002E00001E001C1121F002AFBD17047FFF782FF16
:1002F000FFF7D4FF0A4D2C46641EFDD1FFF790FF97
:100300006D1EFDD10024074EFFF78AFF04F00300A5
:10031000FFF78CFF641CE4B235466D1EFDD1F3E798
:10032000808D5B0040420F00380300080000002071
:0803300000020000DE020008DB
:04000005080000ED02
:00000001FF
